:020000020000FC
:100000000FEF0DBF08E00EBF00E80093610004E0B1
:10001000009361000FEF0AB907B914B905B92FEFC2
:1000200030E040E050E060E003B10217E9F30E94E5
:10003000240003B10217C1F3202F0E9429000E945F
:1000400036000E943E00F0CF14E61A951030E9F712
:10005000089500FD01C0339501FD01C03A9502FDF0
:1000600001C0439503FD08954A9508953F704F7070
:100070004295532F542B42955BB9089504FD089582
:0A008000632F640F6F7168B90895D3
:00000001FF
